:020000020000FC
:1000000022C011C011C053C010C010C010C010C019
:1000100010C010C010C010C010C010C045C00FC02C
:100020000FC00FC00FC01895189518951895189502
:100030001895189518951895189518951895189558
:100040001895189518950FE50DBF04E00EBF0FEF3A
:1000500007BB00E008BB0DEF04BB0FEF05BB0FE7CC
:1000600001BB00E802BB00E00BB906E800BD03E3FA
:1000700009B900E000BD08E10AB901E607B90BEED5
:1000800006B909E905BD0FE303BD00E809BF4798BC
:10009000469A7894FF24FFCF5D9BFECF0CB908955C
:1000A0005F9BFECF0CB1089505B1F6DF189513954F
:0200B0001895A1
:00000001FF
