:020000020000FC
:1000000023C011C011C0AAC010C010C010C010C0C1
:1000100010C010C010C010C010C010C010C010C060
:1000200010C010C010C018951895189518951895FF
:100030001895189518951895189518951895189558
:1000400018951895189518950FE50DBF04E00EBF8B
:100050000FEF07BB00E008BB0FEF04BB0FEF05BBC2
:100060000FE701BB00E802BB00E00BB906E800BDEA
:1000700003E309B900E000BD08E10AB909E905BDDB
:100080000FE303BD00E809BF37984798469A789474
:10009000FF2417D090FF0CC0F3940F2D0AD0012D30
:1000A00008D0022D06D0032D04D0062D02D0F1CFAA
:1000B000F0CF5D9BFECF0CB908955F9BFECF0CB1D6
:1000C00008954DB65EB6459BFECF4599FECF9E7F07
:1000D00030E4112749E0222727D010F42F3F19F0F0
:1000E0003A95B9F70FC0552710D00FD0132E0DD069
:1000F000232E0BD0332E09D0632E0FD018F05217B9
:1001000009F428C02FE04DBE089507D05227322FA2
:1001100004D052273295322B0895112745E022272B
:1001200003D08894279508951036F0F3459B08C0B6
:100130000894221F103930F74599FCCF112707C0CA
:100140008894221F1039F0F6459BFCCF11274A9561
:1001500059F7089591604DBE5EBE08950FB6139590
:040160000FBE189521
:00000001FF
